:100000000C942A000C94F1000C943C000C943C00DD
:100010000C943C000C943C000C943C000C943C0070
:100020000C943C000C943C000C943C000C943C0060
:100030000C943C000C943C000C943C000C943C0050
:100040000C943C000C943C000C943C000C943C0040
:100050000C943C0011241FBECFE5D8E0DEBFCDBF1D
:1000600020E0A0E6B0E001C01D92A536B207E1F79E
:100070000E9473010C94CD020C94000060E081E4B6
:100080000E94160161E081E40E94160162E081E4B1
:100090000E94160160E082E40E94160161E082E4A1
:1000A0000E94160162E082E40E94160162E084E48C
:1000B0000E9412010E949E02789485B7836085BFDA
:1000C0008BB780648BBF089580916300882319F0FB
:1000D0008130D9F1F9CF60E081E40E941A0181E01A
:1000E000809360000E94B50280916300813061F3CB
:1000F00060E081E40E941E0110926000C1E0C093A4
:10010000610045E061E081E40E94220110926100FB
:1001100062E081E40E941A01C09362000E94B5026D
:1001200080916300813081F262E081E40E941E01CF
:100130001092620081E08093610045E061E081E41B
:100140000E94220110926100BFCF10926300809143
:1001500064008130E1F462E082E40E941A0101E06F
:1001600021E445E061E082E40E94450162E082E42E
:100170000E941E0160E081E40E941E0160E082E4B2
:100180000E941A0162E081E40E941A0106C08111F6
:1001900004C060E082E40E941A010E94B50262E09D
:1001A00081E40E941E0160E082E40E941A0101E0E5
:1001B00021E445E061E082E40E94450160E082E4E0
:1001C0000E941E0162E081E40E941E0162E082E45E
:1001D0000E941E0160E081E40E941A0110926300F7
:1001E00073CF1F920F920FB60F9211248F9381E05D
:1001F0008093630080916000813021F080916100E4
:10020000813021F481E08093640006C08091620017
:10021000813011F4109264008F910F900FBE0F90F7
:100220001F90189540E00E947A01089541E00E94D5
:100230007A01089541E00E940C02089540E00E9476
:100240000C0208950F931F93CF93DF93182FD62F8F
:10025000042FC0E013C041E06D2F812F0E940C02DB
:100260000E94A10240E06D2F812F0E940C020E948B
:10027000A10280916300813019F0CF5FC01758F35D
:10028000DF91CF911F910F910895EF92FF920F93FD
:100290001F93CF93DF93F82E162FE42ED22FC0E0BA
:1002A00019C041E0612F8F2D0E940C0241E0602FA8
:1002B0008D2F0E940C020E94A10240E0612F8F2D21
:1002C0000E940C0240E0602F8D2F0E940C020E94C1
:1002D000A102CF5FCE1528F3DF91CF911F910F912F
:1002E000FF90EF9008950E943E000E94640080E01D
:1002F00090E00895683008F083C0823449F118F422
:10030000813441F07FC0833409F440C0843409F45F
:100310005AC078C041110DC02AB381E090E002C0FC
:10032000880F991F6A95E2F7809582238ABB84E043
:100330000895413009F068C02AB381E090E002C01E
:10034000880F991F6A95E2F7822B8ABB84E0089593
:1003500041110DC027B381E090E002C0880F991FC2
:100360006A95E2F78095822387BB84E00895413047
:1003700009F04CC027B381E090E002C0880F991FBC
:100380006A95E2F7822B87BB84E0089541110DC086
:1003900024B381E090E002C0880F991F6A95E2F7CC
:1003A0008095822384BB84E00895413089F524B38D
:1003B00081E090E002C0880F991F6A95E2F7822BD6
:1003C00084BB84E0089541110DC021B381E090E029
:1003D00002C0880F991F6A95E2F78095822381BB3E
:1003E00084E008954130B1F421B381E090E002C08F
:1003F000880F991F6A95E2F7822B81BB84E00895EC
:1004000080E0089581E0089582E0089582E00895F3
:1004100082E0089582E00895683008F083C0823455
:1004200049F118F4813441F07FC0833409F440C0AD
:10043000843409F45AC078C041110DC02BB381E057
:1004400090E002C0880F991F6A95E2F78095822399
:100450008BBB84E00895413009F068C02BB381E084
:1004600090E002C0880F991F6A95E2F7822B8BBB40
:1004700084E0089541110DC028B381E090E002C0EE
:10048000880F991F6A95E2F78095822388BB84E0E4
:100490000895413009F04CC028B381E090E002C0DB
:1004A000880F991F6A95E2F7822B88BB84E0089534
:1004B00041110DC025B381E090E002C0880F991F63
:1004C0006A95E2F78095822385BB84E008954130E8
:1004D00089F525B381E090E002C0880F991F6A95E5
:1004E000E2F7822B85BB84E0089541110DC022B351
:1004F00081E090E002C0880F991F6A95E2F780952D
:10050000822382BB84E008954130B1F422B381E0BC
:1005100090E002C0880F991F6A95E2F7822B82BB98
:1005200084E0089580E0089581E0089583E00895CF
:1005300083E0089583E0089583E0089513BE12BE1A
:10054000089583B7816083BF20E030E008C008B61B
:1005500000FEFDCF88B7816088BF2F5F3F4F203DF1
:1005600087E03807A0F313BE089583B7816083BF87
:1005700020E030E00CC008B600FEFDCF88B78160F7
:1005800088BF80916300813031F02F5F3F4F203270
:0E0590008EE4380780F313BE0895F894FFCF71
:00000001FF
